:020000040000FA
:06000000A8EF19F0120048
:020006001200E6
:08000800F2A402D0C2EF14F0D3
:100010009EA002D037EF15F01200D08EF28E1200A3
:10002000056A046A100EE76ED89008360936043661
:1000300005360D50045C0E50055805E30D50045E66
:0C0040000E50055A082AE72EF0D71200D7
:01004C0000B3
:100050000A00D5340000C102000017000000CA34B5
:1000600000002E0300000B0000004C000000FE0208
:10007000000001000000C13400004303000009003B
:100080000000993400007E02000028000000853442
:100090000000D8020000140000006A340000A6022C
:1000A00000001B0000005B3400001F0300000F0075
:1000B00000003C340000000300001F000000BE33BD
:0A00C0000000000200007E000000B6
:0600CA00D9CFE6FFE1CFF3
:1000D000D9FFE652FD0EDBCF16F0FE0EDBCF17F098
:1000E00017C016F0176A640E1702F3CF17F0160246
:1000F000F3CF16F0F4501726FD0EDBCF18F0FE0EEE
:10010000DBCF19F0040ED89019321832E804FBE165
:100110000A0E1902F3CF19F01802F3CF18F0F450B9
:10012000192616501810146E17501910156E0F0E50
:10013000E76EFD0EDBCF1AF0FE0EDBCF1BF0E750B3
:100140001A161B6A14501A10DF6EDF5000D0E552E9
:10015000E552E7CFD9FF1200D9CFE6FFE1CFD9FFB3
:10016000FE0EDB50F00BE83A060DFE0EDBCFE7FF8C
:10017000F350E75EFE0EE7CFDBFFDB50146E156A2F
:1001800014C0F3FF15C0F4FF00D0E552E7CFD9FF4C
:100190001200D9CFE6FFE1CFD9FF020EE1260A0E09
:1001A000146E14C00EF0FE0EDBCF09F0B6EC19F0A1
:1001B0000950DF6E0A0E146E14C00EF0FE0EDBCF77
:1001C00009F0B6EC19F0010E05C0DBFFDB500F0B98
:1001D000146E0F0EDF14100DF3501410146E020E77
:1001E000E15C03E200D0E16AE552E16E1450E552B1
:1001F000E7CFD9FF1200D9CFE6FFE1CFD9FF0E0E2E
:10020000E126FD0EDBCF14F0FE0EDBCF15F00A0E5B
:100210000D6E0E6A14C008F015C009F010EC00F065
:1002200004C014F005C015F00A0E14C0DBFF0B0E5D
:1002300015C0DBFF0C0EDB6A0D0EDB6A0A0EDB500D
:10024000E76E040EE7CFDBFFFD0EDBCF14F0FE0EF2
:10025000DBCF15F00A0E0D6E0E6A14C008F015C043
:1002600009F010EC00F008C014F009C015F0060EFB
:1002700014C0DBFF070E15C0DBFF080EDB6A090E9A
:10028000DB6A060EDBCF06F0070EDBCF07F0080EA9
:10029000DBCF08F0090EDBCF09F00A0E0B6E0C6AFB
:1002A0000D6A0E6A6EEC18F00A0E02C0DBFF0B0E30
:1002B00003C0DBFF0C0E04C0DBFF0D0E05C0DBFF2F
:1002C0000A0EDB50E76E030EE7CFDBFF060EDBCF37
:1002D00006F0070EDBCF07F0080EDBCF08F0090EA3
:1002E000DBCF09F00A0E0B6E0C6A0D6A0E6A6EEC1B
:1002F00018F0060E06C0DBFF070E07C0DBFF080E76
:1003000008C0DBFF090E09C0DBFF060EDBCF06F0DD
:10031000070EDBCF07F0080EDBCF08F0090EDBCFAE
:1003200009F00A0E0B6E0C6A0D6A0E6A6EEC18F07C
:100330000A0E02C0DBFF0B0E03C0DBFF0C0E04C075
:10034000DBFF0D0E05C0DBFF0A0EDB50E76E020E71
:10035000E7CFDBFF060EDBCF06F0070EDBCF07F0A3
:10036000080EDBCF08F0090EDBCF09F00A0E0B6E8A
:100370000C6A0D6A0E6A6EEC18F0060E06C0DBFF02
:10038000070E07C0DBFF080E08C0DBFF090E09C01F
:10039000DBFF060EDBCF06F0070EDBCF07F0080E03
:1003A000DBCF08F0090EDBCF09F00A0E0B6E0C6AEA
:1003B0000D6A0E6A6EEC18F00A0E02C0DBFF0B0E1F
:1003C00003C0DBFF0C0E04C0DBFF0D0E05C0DBFF1E
:1003D0000A0EDB50E76E010EE7CFDBFF060EDBCF28
:1003E00006F0070EDBCF07F0080EDBCF08F0090E92
:1003F000DBCF09F00A0E0B6E0C6A0D6A0E6A6EEC0A
:1004000018F0060E06C0DBFF070E07C0DBFF080E64
:1004100008C0DBFF090E09C0DBFF060EDB50DF6EF4
:10042000050EDB6AF36EDBCFF4FFF350F45C21E2E0
:10043000D9CF14F0DACF15F0050EDB500F011424DC
:10044000E96E000E1520EA6EEF50E66E050EDB50E9
:10045000E76EFB0EDBCFE9FFFC0EDBCFEAFFE750D8
:10046000E926000EEA22E552E750EF6E050EDB2A80
:10047000D9D70E0EE15C02E2E16AE552E16EE55287
:10048000E7CFD9FF1200D9CFE6FFE1CFD9FF080EA1
:10049000E1260A0E146E14C00EF0FE0EDBCF09F03A
:1004A000B6EC19F00550E66ED950060FE96EDACFBA
:1004B000EAFFE552E750EE6EED6A060EDB50E76E9E
:1004C000020EE7CFDBFF0A0E146E14C00EF0FE0E14
:1004D000DBCF09F0B6EC19F00950E66ED950040FE5
:1004E000E96EDACFEAFFE552E750EE6EED6A040EF0
:1004F000DBCF14F0050EDBCF15F00A0E0D6E0E6A81
:1005000014C008F015C009F010EC00F004C014F09D
:1005100005C015F0060E14C0DBFF070E15C0DBFF8B
:10052000060EDB50E76E010EE7CFDBFF0A0E146EFE
:10053000156A040EDBCF08F0050EDBCF09F014C0FE
:100540000DF015C00EF010EC00F0040E08C0DBFF3B
:10055000050E09C0DBFF040EDB50DF6E030EDB6A05
:10056000F36EDBCFF4FFF350F45C21E2D9CF14F04B
:10057000DACF15F0030EDB500F011424E96E000EE4
:100580001520EA6EEF50E66E030EDB50E76EFC0EB0
:10059000DBCFE9FFFD0EDBCFEAFFE750E926000ED7
:1005A000EA22E552E750EF6E030EDB2AD9D7080E98
:1005B000E15C02E2E16AE552E16EE552E7CFD9FF84
:1005C0001200D9CFE6FFE1CFD9FF130EE126FB0ED3
:1005D000DBCF06F0FC0EDBCF07F0FD0EDBCF08F023
:1005E000FE0EDBCF09F00A0E0B6E0C6A0D6A0E6A66
:1005F0006EEC18F00F0E02C0DBFF100E03C0DBFF25
:10060000110E04C0DBFF120E05C0DBFF0F0EDB5026
:10061000E76E090EE7CFDBFFFB0EDBCF06F0FC0E2B
:10062000DBCF07F0FD0EDBCF08F0FE0EDBCF09F0CD
:100630000A0E0B6E0C6A0D6A0E6A6EEC18F00B0E49
:1006400006C0DBFF0C0E07C0DBFF0D0E08C0DBFF92
:100650000E0E09C0DBFF0B0EDBCF06F00C0EDBCF5E
:1006600007F00D0EDBCF08F00E0EDBCF09F00A0EFF
:100670000B6E0C6A0D6A0E6A6EEC18F00F0E02C05B
:10068000DBFF100E03C0DBFF110E04C0DBFF120EF8
:1006900005C0DBFF0F0EDB50E76E080EE7CFDBFF78
:1006A0000B0EDBCF06F00C0EDBCF07F00D0EDBCF11
:1006B00008F00E0EDBCF09F00A0E0B6E0C6A0D6A05
:1006C0000E6A6EEC18F00B0E06C0DBFF0C0E07C0B6
:1006D000DBFF0D0E08C0DBFF0E0E09C0DBFF0B0EAB
:1006E000DBCF06F00C0EDBCF07F00D0EDBCF08F0F2
:1006F0000E0EDBCF09F00A0E0B6E0C6A0D6A0E6A45
:100700006EEC18F00F0E02C0DBFF100E03C0DBFF13
:10071000110E04C0DBFF120E05C0DBFF0F0EDB5015
:10072000E76E070EE7CFDBFF0B0EDBCF06F00C0EFC
:10073000DBCF07F00D0EDBCF08F00E0EDBCF09F09C
:100740000A0E0B6E0C6A0D6A0E6A6EEC18F00B0E38
:1007500006C0DBFF0C0E07C0DBFF0D0E08C0DBFF81
:100760000E0E09C0DBFF0B0EDBCF06F00C0EDBCF4D
:1007700007F00D0EDBCF08F00E0EDBCF09F00A0EEE
:100780000B6E0C6A0D6A0E6A6EEC18F00F0E02C04A
:10079000DBFF100E03C0DBFF110E04C0DBFF120EE7
:1007A00005C0DBFF0F0EDB50E76E060EE7CFDBFF69
:1007B0000B0EDBCF06F00C0EDBCF07F00D0EDBCF00
:1007C00008F00E0EDBCF09F00A0E0B6E0C6A0D6AF4
:1007D0000E6A6EEC18F00B0E06C0DBFF0C0E07C0A5
:1007E000DBFF0D0E08C0DBFF0E0E09C0DBFF0B0E9A
:1007F000DBCF06F00C0EDBCF07F00D0EDBCF08F0E1
:100800000E0EDBCF09F00A0E0B6E0C6A0D6A0E6A33
:100810006EEC18F00F0E02C0DBFF100E03C0DBFF02
:10082000110E04C0DBFF120E05C0DBFF0F0EDB5004
:10083000E76E050EE7CFDBFF0B0EDBCF06F00C0EED
:10084000DBCF07F00D0EDBCF08F00E0EDBCF09F08B
:100850000A0E0B6E0C6A0D6A0E6A6EEC18F00B0E27
:1008600006C0DBFF0C0E07C0DBFF0D0E08C0DBFF70
:100870000E0E09C0DBFF0B0EDBCF06F00C0EDBCF3C
:1008800007F00D0EDBCF08F00E0EDBCF09F00A0EDD
:100890000B6E0C6A0D6A0E6A6EEC18F00F0E02C039
:1008A000DBFF100E03C0DBFF110E04C0DBFF120ED6
:1008B00005C0DBFF0F0EDB50E76E040EE7CFDBFF5A
:1008C0000B0EDBCF06F00C0EDBCF07F00D0EDBCFEF
:1008D00008F00E0EDBCF09F00A0E0B6E0C6A0D6AE3
:1008E0000E6A6EEC18F00B0E06C0DBFF0C0E07C094
:1008F000DBFF0D0E08C0DBFF0E0E09C0DBFF0B0E89
:10090000DBCF06F00C0EDBCF07F00D0EDBCF08F0CF
:100910000E0EDBCF09F00A0E0B6E0C6A0D6A0E6A22
:100920006EEC18F00F0E02C0DBFF100E03C0DBFFF1
:10093000110E04C0DBFF120E05C0DBFF0F0EDB50F3
:10094000E76E030EE7CFDBFF0B0EDBCF06F00C0EDE
:10095000DBCF07F00D0EDBCF08F00E0EDBCF09F07A
:100960000A0E0B6E0C6A0D6A0E6A6EEC18F00B0E16
:1009700006C0DBFF0C0E07C0DBFF0D0E08C0DBFF5F
:100980000E0E09C0DBFF0B0EDBCF06F00C0EDBCF2B
:1009900007F00D0EDBCF08F00E0EDBCF09F00A0ECC
:1009A0000B6E0C6A0D6A0E6A6EEC18F00F0E02C028
:1009B000DBFF100E03C0DBFF110E04C0DBFF120EC5
:1009C00005C0DBFF0F0EDB50E76E020EE7CFDBFF4B
:1009D0000B0EDBCF06F00C0EDBCF07F00D0EDBCFDE
:1009E00008F00E0EDBCF09F00A0E0B6E0C6A0D6AD2
:1009F0000E6A6EEC18F00B0E06C0DBFF0C0E07C083
:100A0000DBFF0D0E08C0DBFF0E0E09C0DBFF0B0E77
:100A1000DBCF06F00C0EDBCF07F00D0EDBCF08F0BE
:100A20000E0EDBCF09F00A0E0B6E0C6A0D6A0E6A11
:100A30006EEC18F00F0E02C0DBFF100E03C0DBFFE0
:100A4000110E04C0DBFF120E05C0DBFF0F0EDB50E2
:100A5000E76E010EE7CFDBFF0B0EDBCF06F00C0ECF
:100A6000DBCF07F00D0EDBCF08F00E0EDBCF09F069
:100A70000A0E0B6E0C6A0D6A0E6A6EEC18F00B0E05
:100A800006C0DBFF0C0E07C0DBFF0D0E08C0DBFF4E
:100A90000E0E09C0DBFF0B0EDB50DF6E0A0EDB6AA9
:100AA000F36EDBCFF4FFF350F45C22E2D9CF14F005
:100AB000DACF15F00A0EDB500F011424E96E000E98
:100AC0001520EA6EEF503009E66E0A0EDB50E76E35
:100AD000F90EDBCFE9FFFA0EDBCFEAFFE750E9269C
:100AE000000EEA22E552E750EF6E0A0EDB2AD8D755
:100AF000130EE15C02E2E16AE552E16EE552E7CFF6
:100B0000D9FF1200D9CFE6FFE1CFD9FFFE0EDB50AF
:100B1000F00BE83A060DFE0EDBCFE7FFF350E75E81
:100B2000FE0EE7CFDBFFDB5000D0E552E7CFD9FF69
:100B30001200D9CFE6FFE1CFD9FF0A0E146E14C020
:100B40000EF0FE0EDBCF09F0B6EC19F00950060DE1
:100B5000FE0EDBCFE7FFF350E726FE0EE7CFDBFF0D
:100B6000DB50146E156A14C0F3FF15C0F4FF00D0FB
:100B7000E552E7CFD9FF1200D9CFE6FFE1CFD9FF89
:100B8000060EE126F36EFC0EDBCFF4FFF350F45CAF
:100B900071E2020EDB6A030EDB6A040EDB6A050EED
:100BA000DB6ADF6AFC0EDB50DF5C58E2FC0EDBCF59
:100BB000E6FFDF28E552E75CE76E010EE7CFDBFFDB
:100BC000F36E040EF3CFDBFF050EDB6A010EDB5084
:100BD000000814E20A0E086E096A040EDBCF0DF05D
:100BE000050EDBCF0EF016EC19F0040E06C0DBFF8D
:100BF000050E07C0DBFF010EDB06E8D7020EDBCFD8
:100C000016F0030EDBCF17F0DF50E76EFD0EDBCFE3
:100C1000E9FFFE0EDBCFEAFFE750E926000EEA22ED
:100C2000EF500F0B186E196A040EDBCF08F0050E9B
:100C3000DBCF09F018C00DF019C00EF016EC19F05A
:100C400016500624146E17500720156E020E14C09D
:100C5000DBFF030E15C0DBFFDF2AA4D7020EDBCFBC
:100C600014F0030EDBCF15F014C0F3FF15C0F4FF32
:100C700004D003D0F36AF46A00D0060EE15C02E20D
:0E0C8000E16AE552E16EE552E7CFD9FF1200BE
:020C8E00D9CFBC
:100C9000E6FFE1CFD9FFFE0EDB04E96EEA6AD890E9
:100CA000E936EA367F0EE926020EEA22EECF14F08C
:100CB000EFCF15F014C0F3FF15C0F4FF00D0E552DC
:100CC000E7CFD9FF1200D9CFE6FFE1CFD9FFFE0E63
:100CD000DBCFE6FFE66A65EC00F0E552E552FF0F78
:100CE000E96EEA6AD890E936EA368D0EE926020EF8
:100CF000EA22EECF14F0EFCF15F014C0F3FF15C0C9
:100D0000F4FF00D0E552E7CFD9FF1200D9CFE6FFBC
:100D1000E1CFD9FF17EC16F0D00EE66E5BEC16F0C3
:100D2000E552E66A5BEC16F0E55217EC16F0D10ED0
:100D3000E66E5BEC16F0E552010EE66EA2EC16F0E4
:100D4000E552E66EFD0EDBCFE9FFFE0EDBCFEAFFDC
:100D5000E552E750EF6E010EE66EA2EC16F0E5529A
:100D6000E66E010EE76EFD0EDBCFE9FFFE0EDBCF78
:100D7000EAFFE750E926000EEA22E552E750EF6E5F
:100D8000010EE66EA2EC16F0E552E66E020EE76E7C
:100D9000FD0EDBCFE9FFFE0EDBCFEAFFE750E926D1
:100DA000000EEA22E552E750EF6E010EE66EA2EC6D
:100DB00016F0E552E66E030EE76EFD0EDBCFE9FF9F
:100DC000FE0EDBCFEAFFE750E926000EEA22E552ED
:100DD000E750EF6E010EE66EA2EC16F0E552E66EFD
:100DE000040EE76EFD0EDBCFE9FFFE0EDBCFEAFF60
:100DF000E750E926000EEA22E552E750EF6E010EB9
:100E0000E66EA2EC16F0E552E66E050EE76EFD0EFC
:100E1000DBCFE9FFFE0EDBCFEAFFE750E926000E4D
:100E2000EA22E552E750EF6EE66AA2EC16F0E552D0
:100E3000E66E060EE76EFD0EDBCFE9FFFE0EDBCFA2
:100E4000EAFFE750E926000EEA22E552E750EF6E8E
:100E50002DEC16F0E552E7CFD9FF1200D9CFE6FF0F
:100E6000E1CFD9FF17EC16F0D00EE66E5BEC16F072
:100E7000E552E66A5BEC16F0E552FD0EDBCFE9FFCA
:100E8000FE0EDBCFEAFFEF50E66E5BEC16F0E552AC
:100E9000010EE76EFD0EDBCFE9FFFE0EDBCFEAFFB2
:100EA000E750E926000EEA22EF50E66E5BEC16F002
:100EB000E552020EE76EFD0EDBCFE9FFFE0EDBCF43
:100EC000EAFFE750E926000EEA22EF50E66E5BECFF
:100ED00016F0E552030EE76EFD0EDBCFE9FFFE0EC6
:100EE000DBCFEAFFE750E926000EEA22EF50E66E7C
:100EF0005BEC16F0E552040EE76EFD0EDBCFE9FF6A
:100F0000FE0EDBCFEAFFE750E926000EEA22EF50A3
:100F1000E66E5BEC16F0E552050EE76EFD0EDBCFDC
:100F2000E9FFFE0EDBCFEAFFE750E926000EEA22DA
:100F3000EF50E66E5BEC16F0E552060EE76EFD0E26
:100F4000DBCFE9FFFE0EDBCFEAFFE750E926000E1C
:100F5000EA22EF50E66E5BEC16F0E5522DEC16F04F
:100F6000E552E7CFD9FF1200D9CFE6FFE1CFD9FF95
:100F7000FD0EDB041DE1FE0EDB504009E76EFE0EA8
:100F8000E7CFDBFFFC0EDB0408E1FE0EDB5020099F
:100F9000E76EFE0EE7CFDBFF0AD0FC0EDB5007E169
:100FA000FE0EDB50DF0BE76EFE0EE7CFDBFF0AD055
:100FB000FD0EDB5007E1FE0EDB50BF0BE76EFE0EB1
:100FC000E7CFDBFFFE0EDB5000D0E552E7CFD9FFC5
:100FD0001200D9CFE6FFE1CFD9FFFD0EDBCFE9FF4D
:100FE000FE0EDBCFEAFFEE52EF50E66EFB0EDBCFDC
:100FF000E9FFFC0EDBCFEAFFEE52E552E750EF6E61
:10100000FD0EDBCFE9FFFE0EDBCFEAFFEF50E66E11
:10101000FB0EDBCFE9FFFC0EDBCFEAFFE552E7502A
:10102000EF6EFD0EDBCFE9FFFE0EDBCFEAFF020E17
:10103000E926000EEA22EFCF14F00C0E145C42E316
:10104000FD0EDBCFE9FFFE0EDBCFEAFF020EE92645
:10105000000EEA22EF50F40FE66EFB0EDBCFE9FF45
:10106000FC0EDBCFEAFF020EE926000EEA22E55273
:10107000E750EF6EFB0EDBCFE9FFFC0EDBCFEAFFA4
:10108000070EE926000EEA22010EEF6E0C0E146E1A
:10109000FD0EDBCFE9FFFE0EDBCFEAFF020EE926F5
:1010A000000EEA22EF50145C0CE1FB0EDBCFE9FFEF
:1010B000FC0EDBCFEAFF020EE926000EEA220C0E40
:1010C000EF6E4BD0FD0EDBCFE9FFFE0EDBCFEAFF6C
:1010D000020EE926000EEA22EFCF14F00C0E145C8B
:1010E0003CE2FD0EDBCFE9FFFE0EDBCFEAFF020E96
:1010F000E926000EEA22EF50E66EFB0EDBCFE9FF99
:10110000FC0EDBCFEAFF020EE926000EEA22E552D2
:10111000E750EF6EFB0EDBCFE9FFFC0EDBCFEAFF03
:10112000070EE926000EEA22EF6AFD0EDBCFE9FF8B
:10113000FE0EDBCFEAFF020EE926000EEA22EF5098
:101140000CE1FB0EDBCFE9FFFC0EDBCFEAFF020E6A
:10115000E926000EEA220C0EEF6EE552E7CFD9FF2A
:101160001200D9CFE6FFE1CFD9FFFD0EDBCFE9FFBB
:10117000FE0EDBCFEAFFEE52EF50E66EFB0EDBCF4A
:10118000E9FFFC0EDBCFEAFFEE52E552E750EF6ECF
:10119000FD0EDBCFE9FFFE0EDBCFEAFFEF50E66E80
:1011A000FB0EDBCFE9FFFC0EDBCFEAFFE552E75099
:1011B000EF6EFD0EDBCFE9FFFE0EDBCFEAFF070E81
:1011C000E926000EEA22EF0436E1FD0EDBCFE9FF4F
:1011D000FE0EDBCFEAFF020EE926000EEA22EF50F8
:1011E0000C0FE66EFB0EDBCFE9FFFC0EDBCFEAFF58
:1011F000020EE926000EEA22E552E750EF6E0C0ED1
:10120000146EFD0EDBCFE9FFFE0EDBCFEAFF020E10
:10121000E926000EEA22EF50145C0CE1FB0EDBCF56
:10122000E9FFFC0EDBCFEAFF020EE926000EEA2200
:101230000C0EEF6E3FD0FD0EDBCFE9FFFE0EDBCFD5
:10124000EAFF070EE926000EEA22EF5033E1FD0E19
:10125000DBCFE9FFFE0EDBCFEAFF020EE926000E30
:10126000EA22EF50E66EFB0EDBCFE9FFFC0EDBCF90
:10127000EAFF020EE926000EEA22E552E750EF6E81
:101280000C0E146EFD0EDBCFE9FFFE0EDBCFEAFF86
:10129000020EE926000EEA22EF50145C0BE1FB0E71
:1012A000DBCFE9FFFC0EDBCFEAFF020EE926000EE2
:1012B000EA22EF6AE552E7CFD9FF1200D9CFE6FF65
:1012C000E1CFD9FFE652DF6AFD0EDB040DE1FE0E31
:1012D000DB500C0FDF6E0C0E146EFE0EDB50145C38
:1012E00002E10C0EDF6E16D0FD0EDB500BE1FE0EA0
:1012F000DB50DF6E0C0E146EFE0EDB50145C01E151
:10130000DF6A08D0AA0E146EFD0EDB50145C02E1F9
:10131000AA0EDF6EDF5000D0E552E552E7CFD9FFCD
:101320001200D9CFE6FFE1CFD9FF17EC16F0D00EAF
:10133000E66E5BEC16F0E552E66A5BEC16F0E55201
:10134000050EE76EFD0EDBCFE9FFFE0EDBCFEAFFF9
:10135000E750E926000EEA22EF500F0B146E040E40
:10136000E76EFD0EDBCFE9FFFE0EDBCFEAFFE750B5
:10137000E926000EEA22EF500F0B100DF350141067
:10138000E66E5BEC16F0E552030EE76EFD0EDBCF6A
:10139000E9FFFE0EDBCFEAFFE750E926000EEA2266
:1013A000EF500F0B146E020EE76EFD0EDBCFE9FF60
:1013B000FE0EDBCFEAFFE750E926000EEA22EF50EF
:1013C0000F0B100DF3501410E66E5BEC16F0E552A7
:1013D000010EE76EFD0EDBCFE9FFFE0EDBCFEAFF6D
:1013E000E750E926000EEA22EF500F0B146EFD0EB7
:1013F000DBCFE9FFFE0EDBCFEAFFEF500F0B100D46
:10140000F3501410E66E5BEC16F0E5522DEC16F07E
:10141000E552E7CFD9FF1200D9CFE6FFE1CFD9FFE0
:1014200017EC16F0D00EE66E5BEC16F0E552040EEB
:10143000E66E5BEC16F0E552010EE76EFD0EDBCFBB
:10144000E9FFFE0EDBCFEAFFE750E926000EEA22B5
:10145000EF500F0B146EFD0EDBCFE9FFFE0EDBCF5E
:10146000EAFFEF500F0B100DF3501410E66E5BEC1B
:1014700016F0E552030EE76EFD0EDBCFE9FFFE0E20
:10148000DBCFEAFFE750E926000EEA22EF500F0B10
:10149000146E020EE76EFD0EDBCFE9FFFE0EDBCF12
:1014A000EAFFE750E926000EEA22EF500F0B100D7D
:1014B000F3501410E66E5BEC16F0E552050EE76E85
:1014C000FD0EDBCFE9FFFE0EDBCFEAFFE750E9269A
:1014D000000EEA22EF500F0B146E040EE76EFD0EA5
:1014E000DBCFE9FFFE0EDBCFEAFFE750E926000E77
:1014F000EA22EF500F0B100DF3501410E66E5BEC68
:1015000016F0E5522DEC16F0E552E7CFD9FF1200A8
:10151000D9CFE6FFE1CFD9FF17EC16F0D00EE66E7B
:101520005BEC16F0E552030EE66E5BEC16F0E5524E
:10153000FE0EDBCFE6FF5BEC16F0E5522DEC16F06D
:10154000E552E7CFD9FF1200D9CFE6FFE1CFD9FFAF
:10155000E652E66AD00EE66EF3EC16F0E552E5527E
:10156000DF6E7F0EDF14DF6EDFCFE6FFE66AD00EA0
:10157000E66E15EC17F0E552E552E552900EE66E78
:10158000070EE66ED00EE66E15EC17F0E552E5524A
:10159000E552E552E552E7CFD9FF1200F30EE66EB1
:1015A000020EE66E86EC06F0E552E5520201A55108
:1015B0000201F35D05E0F3C2A5F20201010E7E6FA8
:0215C000120017
:0E15C200D9CFE6FFE1CFD9FFE652DF6A040E73
:1015D000DF5C16E2100EDF24E66EE66A92EC18F08D
:1015E000E552E552E66EDF50EA6A070FE96E030E38
:1015F000EA22E552E750EF6EDCEC19F0DF2AE7D77C
:10160000300E0301075D176E300E085D0A0DF350B2
:101610001724156E166A300E095D146E300E0A5DC1
:101620000A0DF35014243C0DF3501524166FF4509A
:101630001620176FDF6A040EDF5C16E2200EDF242F
:10164000E66EE66A92EC18F0E552E552E66EDF507F
:10165000EA6A0B0FE96E030EEA22E552E750EF6EDD
:10166000DCEC19F0DF2AE7D7300E03010B5D176EB3
:10167000300E0C5D0A0DF3501724156E166A300EED
:101680000D5D146E300E0E5D0A0DF35014243C0DEA
:10169000F3501524186FF4501620196F000EE66EE3
:1016A000E66A92EC18F0E552E5520301006FDCECBB
:1016B00019F0DF6A060EDF5C16E2300EDF24E66EFC
:1016C000E66A92EC18F0E552E552E66EDF50EA6AFF
:1016D000010FE96E030EEA22E552E750EF6EDCECF3
:1016E00019F0DF2AE7D71BDB84928494808AE552C5
:1016F000E552E7CFD9FF1200D9CFE6FFE1CFD9FFFE
:10170000E65203010051010A01E1A0D1030A01E1FF
:1017100082D0020A01E071D2E66AE8EC13F0E552E9
:10172000010815E103011E5112E1010E1E6F93DA4B
:10173000040EE66EE66A010EE66E030EE66E09EC36
:1017400011F0E552E552E552E552E9DA63D0E66A76
:10175000E8EC13F0E552000914E103011E0511E164
:101760001E6B010EE66E000EE66EE66A15EC18F0D2
:10177000E552E552E552DCEC19F00301010E006F71
:1017800049D0040EE66EE8EC13F0E55201081EE1C4
:101790008FDA0301156B070EE66E030EE66E7AEC28
:1017A0000FF0E552E55215C3E6FFF40EE66E010EAA
:1017B000E66E79EC11F0E552E552E552849284949C
:1017C0000301010E1C6F020E006F24D0050EE66EA1
:1017D000E8EC13F0E55201081DE16ADA0301156B2C
:1017E0000B0EE66E030EE66E7AEC0FF0E552E55254
:1017F00015C3E6FFF40EE66E010EE66E79EC11F00D
:10180000E552E552E552849284940301010E1D6F66
:10181000020E006FF2D1807A020EE66EE8EC13F051
:10182000E552010811E10301152B1551030801E2EE
:10183000156B15C3E6FFF40EE66E010EE66E79EC4D
:1018400011F0E552E552E552030EE66EE8EC13F0B6
:10185000E552010858E103011C0529E11551EA6A26
:10186000070FE96E030EEA22EF2A1551EA6A070F05
:10187000E96E030EEA22EFCF14F01551EA6AC70FA2
:10188000E96E020EEA22EF50D880145408E2155196
:10189000EA6A070FE96E030EEA22300EEF6E070EBA
:1018A000E66E030EE66E7AEC0FF0E552E5520301A8
:1018B0001D0529E11551EA6A0B0FE96E030EEA22B4
:1018C000EF2A1551EA6A0B0FE96E030EEA22EFCFF9
:1018D00014F01551EA6AC70FE96E020EEA22EF50C2
:1018E000D880145408E21551EA6A0B0FE96E030E12
:1018F000EA22300EEF6E0B0EE66E030EE66E7AEC09
:101900000FF0E552E552040EE66EE8EC13F0E552F6
:1019100001084AE167EC10F0070EE66E030EE66E72
:101920007AEC0FF0E552E552DF6A040EDF5C15E257
:10193000DF50EA6A070FE96E030EEA22EF50E66E07
:10194000100EDF24E66EE66A15EC18F0E552E5525B
:10195000E552DCEC19F0DF2AE8D7300E0301075D11
:10196000176E300E085D0A0DF3501724156E166AB7
:10197000300E095D146E300E0A5D0A0DF35014240A
:101980003C0DF3501524166FF4501620176FE66ABD
:10199000000EE66EE66A15EC18F0E552E552E552E7
:1019A000DCEC19F00301006B050EE66EE8EC13F0B9
:1019B000E55201084AE167EC10F00B0EE66E030EEB
:1019C000E66E7AEC0FF0E552E552DF6A040EDF5C5A
:1019D00015E2DF50EA6A0B0FE96E030EEA22EF50C0
:1019E000E66E200EDF24E66EE66A15EC18F0E5528E
:1019F000E552E552DCEC19F0DF2AE8D7300E03019E
:101A00000B5D176E300E0C5D0A0DF3501724156E2A
:101A1000166A300E0D5D146E300E0E5D0A0DF35019
:101A200014243C0DF3501524186FF4501620196F30
:101A3000E66A000EE66EE66A15EC18F0E552E5522D
:101A4000E552DCEC19F00301006BD7D0E66AE8EC54
:101A500013F0E552010805E103011E5102E1010EF8
:101A60001E6FE66AE8EC13F0E552000914E1030189
:101A70001E0511E11E6BE66A000EE66EE66A15ECC5
:101A800018F0E552E552E552DCEC19F084928494AA
:101A90000301006BB2D0CB0EE66E020EE66E86EC52
:101AA00006F0E552E552AED8DF6A060EDF5C26E2AC
:101AB000DF50EA6A010FE96E030EEA22EFCF14F05D
:101AC000DF50EA6A0F0FE96E030EEA22EF50145C52
:101AD00013E0DF50EA6A010FE96E030EEA22EF50CD
:101AE000E66E300EDF24E66EE66A15EC18F0E5527D
:101AF000E552E552DCEC19F0DF2AD7D70201CD51CF
:101B0000000804E2360E0301042703D0300E03015F
:101B10000427300E015D176E300E025D0A0DF35082
:101B20001724156E166A300E035D146E300E045DB8
:101B30000A0DF35014243C0DF35015241A6FF45081
:101B400016201B6F040EE66EE66A010EE66E030EAB
:101B5000E66E09EC11F0E552E552E552E55203015B
:101B600016511A5D17511B5907E318511A5D195187
:101B70001B5902E2848207D018511A5D19511B5972
:101B800002E3849284840201CD51000804E2360EFF
:101B90000301045F03D0300E0301045FDF6A060E09
:101BA000DF5C13E2DF50EA6A010FE96E030EEA22FE
:101BB000EF50E66EDF50EA6A0F0FE96E030EEA227D
:101BC000E552E750EF6EDF2AEAD70201CD0514E1B6
:101BD000390ECC5D11E1590ECB5D0EE1E66A000EC7
:101BE000E66EE66A15EC18F0E552E552E552DCECDB
:101BF00019F00301006B01D000D0E552E552E7CFA8
:101C0000D9FF12000F0E0201CB15300F0301016F37
:101C1000F00E0201CB15E8380F0B300F0301026FF5
:101C20000F0E0201CC15300F0301036FF00E0201FD
:101C3000CC15E8380F0B0301046F0F0E0201CD1510
:101C4000300F0301056F300E0201CD15E8380F0B80
:101C50000301066F1200D9CFE6FFE1CFD9FF020ED4
:101C6000E126DE6ADD6ADECF14F0DDCF15F0D89014
:101C7000155004E6060E145C000E15580FE2DECF78
:101C8000E9FFDDCFEAFF010EE926030EEA22300E5E
:101C9000EF6EDF2A010E01E3DB2AE5D7020EE15CDD
:101CA00002E2E16AE552E16EE552E7CFD9FF1200A8
:101CB000D9CFE6FFE1CFD9FF020EE126DE6ADD6A69
:101CC000DECF14F0DDCF15F0D890155004E6040EE9
:101CD000145C000E155819E2DECFE9FFDDCFEAFFF4
:101CE000070EE926030EEA22300EEF6EDECFE9FF83
:101CF000DDCFEAFF0B0EE926030EEA22300EEF6E6F
:101D0000DF2A010E01E3DB2ADBD7020EE15C02E2EF
:101D1000E16AE552E16EE552E7CFD9FF1200300EDD
:101D20000301015D146E300E025D100DF3501410AE
:101D30000201D16F300E0301035D146E300E045D9D
:101D4000100DF35014100201D26F300E0301055D27
:101D5000146E300E065D100DF35014100201D36F97
:101D6000D10EE66E020EE66E2EEC07F0E552E5525D
:021D700012005F
:0E1D7200D9CFE6FFE1CFD9FF050EE126FE0E28
:101D8000DB50080802E2000E66D0FE0EDBCFB7F291
:101D9000DF6A0201B751DF5C0AE2DF50EA6AAF0F87
:101DA000E96E020EEA2238C3EFFFDF2AF2D7A70E50
:101DB000BD6F020EBE6FDF6A0B0EDF5C48E2010EE4
:101DC000DB6AFE0EDB50F36E010EDBCFF4FFF35047
:101DD000F45C15E2DF50EA6A2E0FE96E030EEA2288
:101DE000EF50E66E010EDB50EA6AA70FE96E020EB5
:101DF000EA22E552E750EF6E010EDB2AE2D7020E2F
:101E0000DB6A640EF36E020EDBCFF4FFF350F45C7A
:101E10001CE22DD8030EF36EF3CFDBFF040EDB6A5A
:101E2000030EDBCF14F0DB06040EDBCF15F001E26E
:101E3000DB061450151006E0080EE66E88EC19F06B
:101E4000E552EED7020EDB2ADCD7DF2AB5D7020136
:101E5000B86B010E00D0146E050EE15C02E2E16A7F
:101E6000E552E16E1450E552E7CFD9FF12000201AE
:101E7000A651010A14E0010A01E03BD0B851EA6A18
:101E8000BD25E96EBE51EA22EF50E66E41D9E5521A
:101E90000201B82BB751B85D01E3B86B2AD0B85135
:101EA000EA6ABD25E96EBE51EA22EF50E66E30D9EE
:101EB000E5520201B82BB751B85D01E3B86BB92BFD
:101EC000000EBA23BB51B95DBC51BA5911E3B96BCD
:101ED000BA6BA70EBD1902E1020EBE1905E1AF0EE5
:101EE000BD6F020EBE6F04D0A70EBD6F020EBE6F97
:101EF00000D01200D9CFE6FFE1CFD9FFE652DF6A6A
:101F0000DF6A0201B751DF5C16E2DF50E76EFD0EBB
:101F1000DBCFE9FFFE0EDBCFEAFFE750E926000E3C
:101F2000EA22EF50E66E53D9E552000902E1000EB5
:101F300041D0DF2AE6D7DF6AB751DF5C38E2DF50F5
:101F4000E76EFD0EDBCFE9FFFE0EDBCFEAFFE750C9
:101F5000E926000EEA22EF50200809E1DF50EA6A84
:101F6000A70FE96E020EEA2238C3EFFF1ED0DF5042
:101F7000E76EFD0EDBCFE9FFFE0EDBCFEAFFE75099
:101F8000E926000EEA22EF50D00FEA6A2E0FE96E22
:101F9000030EEA22EF50E66EDF50EA6AA70FE96E01
:101FA000020EEA22E552E750EF6EDF2AC5D7B86B82
:101FB000010E00D0E552E552E7CFD9FF1200D9CF8C
:101FC000E6FFE1CFD9FFE652DF6ADF6A0201B751CF
:101FD000DF5C19E2DF50E76EFD0EDBCFE9FFFE0E9E
:101FE000DBCFEAFFE750E926000EEA22EF50E66E6B
:101FF000DF50EA6AA70FE96E020EEA22E552E750C7
:10200000EF6EDF2AE3D7B86BE552E552E7CFD9FF91
:102010001200D9CFE6FFE1CFD9FFE652DF6AFE0E0C
:10202000DBCF14F00201B751D880145402E2000E45
:102030002DD0FD0EDBCFE6FFCAD8E552000902E144
:10204000000E24D0FD0EDB5020080AE1FE0EDB500E
:10205000EA6AA70FE96E020EEA2238C3EFFF14D036
:10206000FD0EDB50D00FEA6A2E0FE96E030EEA2256
:10207000EF50E66EFE0EDB50EA6AA70FE96E020E25
:10208000EA22E552E750EF6E010E00D0E552E5522C
:10209000E7CFD9FF1200D9CFE6FFE1CFD9FFFD0E80
:1020A000DBCFBBF2FE0EDBCFBCF2010E0F0B020149
:1020B00005E0D890BC33BB33E806FBE10201B96B05
:1020C000BA6B010EA66FE552E7CFD9FF12000201ED
:1020D000A70EBD6F020EBE6FA66B1200D9CFE6FF32
:1020E000E1CFD9FFE652DF6A0201B751DF5C0AE2B5
:1020F000DF50EA6AA70FE96E020EEA2238C3EFFF4B
:10210000DF2AF2D7B86BE552E552E7CFD9FF1200CC
:10211000D9CFE6FFE1CFD9FF809280948096809856
:10212000080EE66ED1EC19F0E552FE0EDB50836E20
:102130000201B851030A0DE0010A09E0030A05E0B3
:10214000010A01E008D0808206D0808404D0808615
:1021500002D0808800D0080EE66ED1EC19F0E5526E
:10216000E552E7CFD9FF1200D9CFE6FFE1CFD9FF83
:10217000020EE126FE0EDB50DF6EFE0EDBCFE6FF29
:10218000FD0EDB50E552E724DF5C17E2DF50EA6A20
:10219000A70FE96E020EEA22010EEFCFDBFFDB5044
:1021A0008009E66EDF50EA6AA70FE96E020EEA22A6
:1021B000E552E750EF6EDF2AE0D7020EE15C02E263
:1021C000E16AE552E16EE552E7CFD9FF1200D9CFBF
:1021D000E6FFE1CFD9FFE652DF6AFE0EDB502008B2
:1021E00003E1010EDF6E0ED0300EF36EFE0EDBCF7C
:1021F000F4FFF350F45C06E3FE0EDB50390802E313
:10220000010EDF6EDF5000D0E552E552E7CFD9FF77
:102210001200D9CFE6FFE1CFD9FFE652DF6AFC0E0C
:10222000DB50DF6EFB0EDB50DF5C16E2DF50E76E4B
:10223000FD0EDBCFE9FFFE0EDBCFEAFFE750E9261C
:10224000000EEA22EF50E66EC2DFE552000902E11D
:10225000000E4AD0DF2AE6D7FC0EDB50DF6EFB0E05
:10226000DBCFE6FFFC0EDB50E552E724DF5C38E213
:10227000DF50E76EFD0EDBCFE9FFFE0EDBCFEAFF9E
:10228000E750E926000EEA22EF50200809E1DF506E
:10229000EA6AA70FE96E020EEA2238C3EFFF1ED0EA
:1022A000DF50E76EFD0EDBCFE9FFFE0EDBCFEAFF6E
:1022B000E750E926000EEA22EF50D00FEA6A2E0F0F
:1022C000E96E030EEA22EF50E66EDF50EA6AA70FCE
:1022D000E96E020EEA22E552E750EF6EDF2ABFD721
:1022E0000201B86B010E00D0E552E552E7CFD9FFED
:1022F0001200D9CFE6FFE1CFD9FFE652FD0EDBCFCA
:10230000BBF2FE0EDBCFBCF2010E0F0B020105E0AB
:10231000D890BC33BB33E806FBE10201B96BBA6B62
:10232000FC0EDB50BF6FC06BDF6AB751DF5C1CE295
:10233000DF50146E156ABF51141802E1C051151810
:1023400011E0DF50EA6AA70FE96E020EEA22EF50B1
:10235000E66EDF50EA6AAF0FE96E020EEA22E5523E
:10236000E750EF6EDF2AE1D7AF0EBF25E96E020E10
:10237000C021EA6EEF6A010EA66FE552E552E7CF83
:04238000D9FF12006F
:0C238400DACFE4FFE2CFDAFFE9CFE4FF9C
:10239000EACFE4FFF6CFE4FFF7CFE4FFF5CFE4FFA9
:1023A000F3CFE4FFF4CFE4FFFACFE4FF00EE00F058
:1023B000140EE80403E3EECFE4FFFBD700EE14F0C5
:1023C000080EE80403E3EECFE4FFFBD7E652D9CFD3
:1023D000E6FFE1CFD9FFE652F7EC18F0DF6E02011D
:1023E0003F513F2BEA6A420FE96E020EEA22DFCF2D
:1023F000EFFF3C0E3F5D01E33F6B412B9E9AE552A0
:10240000E552E7CFD9FFE55200EE1BF0080EE804D5
:1024100003E3E5CFEDFFFBD700EE13F0140EE80465
:1024200003E3E5CFEDFFFBD7E5CFFAFFE5CFF4FF00
:10243000E5CFF3FFE5CFF5FFE5CFF7FFE5CFF6FFFB
:10244000E5CFEAFFE5CFE9FFE5CFDAFF1100DACF0C
:10245000E4FFE2CFDAFFE9CFE4FFEACFE4FFE652A0
:10246000D9CFE6FFE1CFD9FFE6520201025104E1E4
:10247000ACA2FED7AC9A1BD00151EA6A030FE96EF9
:10248000020EEA22EFCFDFFFDF50AD6E012B3C0ED4
:10249000015D01E3016B000EE76E0219E8AE02D0A8
:1024A000023503D0E750D880025501E20207E55219
:1024B000E552E7CFD9FFE552E5CFEAFFE5CFE9FFE7
:1024C000E5CFDAFF1100D9CFE6FFE1CFD9FFE65221
:1024D0007C0EDF6ED950FB0FE96EFF0EDA20EA6E3C
:1024E000EE2A000EEE22EE22EE22D950FB0FE96E0C
:1024F000FF0EDA20EA6E040EE76ED890EF36010E7A
:10250000EB36020EEB36030EEB36E706F6E1146A05
:10251000480E156EE80E166E010E176E14C006F00A
:1025200015C007F016C008F017C009F0FB0EDBCF8E
:102530000BF0FC0EDBCF0CF0FD0EDBCF0DF0FE0E32
:10254000DBCF0EF06EEC18F0FB0E06C0DBFFFC0ECE
:1025500007C0DBFFFD0E08C0DBFFFE0E09C0DBFF7E
:10256000FB0EDBCFE6FFFC0EDBCFE6FFDFCFE6FFA7
:10257000D0EC17F0E552E552E552D08EAC8AAC9E15
:10258000F28C9F8AE552E552E7CFD9FF1200D9CFEE
:10259000E6FFE1CFD9FFACA2FED702010051002B2C
:1025A000EA6A030FE96E020EEA22FE0EDBCFEFFFAE
:1025B000022B3C0E005D01E3006B010E00D0E552E2
:1025C000E7CFD9FF1200D9CFE6FFE1CFD9FF020E46
:1025D000E126000E0201E76E0219E8AE02D00235D4
:1025E00003D0E750D880025523E20151EA6A030F75
:1025F000E96E020EEA22010EEFCFDBFFACA2FED79E
:10260000010EDB50AD6EACA2FED70201012B3C0ED9
:10261000015D01E3016B000EE76E0219E8AE02D026
:10262000023503D0E750D880025501E20207D1D726
:10263000146E020EE15C02E2E16AE552E16E1450B2
:10264000E552E7CFD9FF1200D9CFE6FFE1CFD9FF9E
:10265000E652DF6A9D9A000E0201E76E4119E8AE6C
:1026600002D0413503D0E750D880415502E2010E37
:10267000DF6E9D8ADF5000D0E552E552E7CFD9FFEB
:102680001200D9CFE6FFE1CFD9FFE6529D9A0201B1
:102690004051402BEA6A420FE96E020EEA22EFCF68
:1026A000DFFF3C0E405D01E3406B000EE76E411919
:1026B000E8AE02D0413503D0E750D880415501E261
:1026C00041079D8ADF5000D0E552E552E7CFD9FFA0
:0226D0001200F6
:0E26D200D9CFE6FFE1CFD9FFE6528DD8DF6AFF
:1026E000050EDF5C09E2DF50EA6A1F0FE96E030E98
:1026F000EA22EF6ADF2AF4D7E552E552E7CFD9FFA5
:102700001200D9CFE6FFE1CFD9FF9BD8FC0EDBCF7B
:10271000E6FFFD0EDBCFE6FFFE0EDBCFE6FFAAD81D
:10272000E552E552E552E552E7CFD9FF1200D9CF85
:10273000E6FFE1CFD9FFE652FC0EDB50DF6EFB0E69
:10274000DB50D880DF541AE37CD8DFCFE6FF176A6E
:10275000DF34FE0B1736166EFD0EDB501624146E9A
:10276000FE0EDB501720156E14C0E6FF15C0E6FF05
:1027700081D8E552E552E552DF2AE1D7E552E5522C
:10278000E7CFD9FF1200D9CFE6FFE1CFD9FFE6525C
:10279000DF6A57D8DF6A050EDF5C15E2DFCFE6FFA0
:1027A000156ADF34FE0B1536146E240E1426030E44
:1027B000152214C0E6FF15C0E6FF5CD8E552E552CD
:1027C000E552DF2AE8D7E552E552E7CFD9FF1200FC
:1027D000D9CFE6FFE1CFD9FFFE0EEA6ADB34FE0B6C
:1027E000EA36E96E240EE926030EEA22EF5000D005
:1027F000E552E7CFD9FF1200D9CFE6FFE1CFD9FFED
:10280000E652DF6A050EDF5C17E2EA6ADF34FE0B90
:10281000EA36E96E240EE926030EEA22EF6AEA6A36
:10282000DF34FE0BEA36E96E240EE926030EEA22B7
:10283000EE52EF6ADF2AE6D7E552E552E7CFD9FF3D
:1028400012008150010B03011F6F8150020B01E048
:10285000010E206F8150040B01E0010E216F8150A9
:10286000080B01E0010E226F8150100B01E0010EF8
:10287000236F1200D9CFE6FFE1CFD9FFFD0EDBCFEA
:10288000E9FFFE0EDBCFEAFFEF50010A3DE0010A4F
:1028900001E074D0FC0EDB50EA6A1F0FE96E030EF4
:1028A000EA22EF50010B27E1FD0EDBCFE9FFFE0E20
:1028B000DBCFEAFFEE52EF2AFD0EDBCFE9FFFE0E83
:1028C000DBCFEAFFEECF14F0EFCF15F0020E0001E0
:1028D000155C10E3FD0EDBCFE9FFFE0EDBCFEAFF58
:1028E000010EEF6EFD0EDBCFE9FFFE0EDBCFEAFF40
:1028F000EE52EF6A08D0FD0EDBCFE9FFFE0EDBCF14
:10290000EAFFEE52EF6A3AD0FC0EDB50EA6A1F0F84
:10291000E96E030EEA22EF50010B010826E1FD0EDD
:10292000DBCFE9FFFE0EDBCFEAFFEE52EF2AFD0E12
:10293000DBCFE9FFFE0EDBCFEAFFEECF14F0EFCFE7
:1029400015F0020E0001155C0FE3FD0EDBCFE9FF71
:10295000FE0EDBCFEAFFEF6AFD0EDBCFE9FFFE0ED6
:10296000DBCFEAFFEE52EF6A08D0FD0EDBCFE9FFC6
:10297000FE0EDBCFEAFFEE52EF6A00D0E552E7CF62
:04298000D9FF120069
:0C298400DACFE4FFE2CFDAFFE9CFE4FF96
:10299000EACFE4FFF6CFE4FFF7CFE4FFF5CFE4FFA3
:1029A000F3CFE4FFF4CFE4FFFACFE4FF00EE00F052
:1029B000140EE80403E3EECFE4FFFBD700EE14F0BF
:1029C000080EE80403E3EECFE4FFFBD7E652F294EF
:1029D0000201E02B000EE123E22BE323E42BE523AD
:1029E000E607E75BE73504E2E6510008000EE7552D
:1029F00008E3E82B000EE923EA23EB23C80EE66F79
:102A0000E76BDA51DB1107E005D0DBC2FAFF020108
:102A1000DA51F96EFADFD8C2E6FFD9C2E6FF50EC10
:102A200019F0E552E552E55200EE1BF0080EE804FD
:102A300003E3E5CFEDFFFBD700EE13F0140EE8043F
:102A400003E3E5CFEDFFFBD7E5CFFAFFE5CFF4FFDA
:102A5000E5CFF3FFE5CFF5FFE5CFF7FFE5CFF6FFD5
:102A6000E5CFEAFFE5CFE9FFE5CFDAFF1100DACFE6
:102A7000E4FFE2CFDAFFE9CFE4FFEACFE4FFF6CFED
:102A8000E4FFF7CFE4FFF5CFE4FFF3CFE4FFF4CFAB
:102A9000E4FFFACFE4FF00EE00F0140EE80403E3D5
:102AA000EECFE4FFFBD700EE14F0080EE80403E3DA
:102AB000EECFE4FFFBD7E6529E90DCC2E6FFDDC21C
:102AC000E6FF34EC19F0E552E5520201DE51DF1168
:102AD00007E005D0DFC2FAFF0201DE51F96EFADF2E
:102AE000E55200EE1BF0080EE80403E3E5CFEDFF2E
:102AF000FBD700EE13F0140EE80403E3E5CFEDFF7F
:102B0000FBD7E5CFFAFFE5CFF4FFE5CFF3FFE5CF45
:102B1000F5FFE5CFF7FFE5CFF6FFE5CFEAFFE5CF1D
:102B2000E9FFE5CFDAFF1100D9CFE6FFE1CFD9FF0A
:102B30009F0EE66E6CEC19F0E552FD0EDBCFD8F27D
:102B4000FE0EDBCFD9F2FB0EDBCFDAF2FC0EDBCFD1
:102B5000DBF2FD0EDBCFE6FFFE0EDBCFE6FF50EC37
:102B600019F0E552E552E552E7CFD9FF1200D9CF6F
:102B7000E6FFE1CFD9FFC50EE66ED6EC18F0E552C0
:102B8000FD0EDBCFE6FFFE0EDBCFE6FF34EC19F0E7
:102B9000E552E5529F80FD0EDBCFDCF2FE0EDBCF6F
:102BA000DDF2FB0EDBCFDEF2FC0EDBCFDFF2E55217
:102BB000E7CFD9FF1200D9CFE6FFE1CFD9FF040E4E
:102BC000E126F29AE8C2DFFF010EE9C2DBFF020E46
:102BD000EAC2DBFF030EEBC2DBFFF28ADECF06F0B8
:102BE000DECF07F0DECF08F0DDCF09F0DD52DD5299
:102BF000040EE15C03E200D0E16AE552E16EE552C9
:102C0000E7CFD9FF1200F29E0201E86BE96BEA6B95
:062C1000EB6BF28E1200D6
:0A2C1600C76AC78E590EC86E280E5B
:102C2000C66EC56A9E96A196948694881200949664
:102C3000949882888286050EE66ED1EC19F0E552F2
:102C40008298050EE66ED1EC19F0E5528296050EDB
:102C5000E66ED1EC19F0E5521200949694988298A1
:102C6000050EE66ED1EC19F0E5528286050EE66E91
:102C7000D1EC19F0E55282881200D9CFE6FFE1CFFE
:102C8000D9FFE65294969488DF6ADF500A080EE373
:102C9000050EE66ED1EC19F0E5528286050EE66E61
:102CA000D1EC19F0E5528296DF2AEFD7E552E552D2
:102CB000E7CFD9FF1200D9CFE6FFE1CFD9FFE65227
:102CC00094969498DF6A080EDF5C25E2FE0EDB50D6
:102CD000800B02E0010E01D0000EE8B08288E8A06F
:102CE0008298030EE66ED1EC19F0E5528286060E4C
:102CF000E66ED1EC19F0E5528296020EE66ED1EC4A
:102D000019F0E552FE0EDBCFF3FFF39EF346F3CF4F
:102D1000DBFFDF2AD8D79488020EE66ED1EC19F0DB
:102D2000E5528286060EE66ED1EC19F0E5528296E7
:102D3000060EE66ED1EC19F0E552E552E552E7CF0A
:102D4000D9FF1200D9CFE6FFE1CFD9FF020EE1266D
:102D5000DF6A949694989488010EDB6A080EF36EED
:102D6000010EDBCFF4FFF350F45C17E28286060E0F
:102D7000E66ED1EC19F0E552DF9EDF468250100B73
:102D800001E0010EDF10DF6E8296060EE66ED1ECDA
:102D900019F0E552010EDB2AE1D79498FE0EDB0410
:102DA00002E1829801D08288020EE66ED1EC19F021
:102DB000E5528286060EE66ED1EC19F0E552829657
:102DC000060EE66ED1EC19F0E552DF50146E020EDD
:102DD000E15C03E200D0E16AE552E16E1450E55295
:102DE000E7CFD9FF1200D9CFE6FFE1CFD9FFE652F6
:102DF0001EDFFE0EDBCFE6FF5EDFE552FD0EDBCF12
:102E0000E6FF59DFE55213DFFE0EDB28E66E53DFE7
:102E1000E552E66A97DFE552DF6E1FDFDF5000D034
:102E2000E552E552E7CFD9FF1200D9CFE6FFE1CF57
:102E3000D9FFFDDEFE0EDBCFE6FF3DDFE552FD0EE6
:102E4000DBCFE6FF38DFE552FC0EDBCFE6FF33DFFA
:0C2E5000E55203DFE552E7CFD9FF120086
:042E5C00D9CFE6FFE5
:102E6000E1CFD9FF040EE126DF6A030EDB6AB4EC82
:102E700018F0A4EC0AF069EC13F0040EE66EB9EC5D
:102E80000EF0E5526E0EE66E1E0EE66EBF0EE66E9C
:102E9000E00EE66E94EC15F0E552E552E552E5528F
:102EA000E1EC0AF00DEC00F0F28E0201F40EE05DB0
:102EB000010EE15905E3C7EC19F00201E06BE16B8B
:102EC00002010A0EE25D000EE35905E3C3EC13F0C4
:102ED0000201E26BE36B0201FA0EE45D000EE559BC
:102EE00005E37CEC0BF00201E46BE56BDED7040E2E
:102EF000E15C02E2E16AE552E16EE552E7CFD9FF1B
:022F00001200BD
:0E2F0200500EF66E000EF76E000EF86E030114
:102F10000900F5503E6F0900F5503F6F03E13E6731
:102F200001D03DD00900F550396F0900F5503A6FD6
:102F30000900F5503B6F09000900F550E96E0900E2
:102F4000F550EA6E090009000900F5503C6F0900D0
:102F5000F5503D6F09000900F6CF40F3F7CF41F37C
:102F6000F8CF42F339C3F6FF3AC3F7FF3BC3F8FF8C
:102F700003013C5302E13D5307E00900F550EE6EBA
:102F80003C07F8E23D07F9D740C3F6FF41C3F7FF1E
:102F900042C3F8FF03013E07000E3F5BBFD712009C
:102FA000D9CFE6FFDACFE6FFE1CFD9FFE2CFDAFFF4
:102FB000AC6AAB6AFD0EDBB0AC88DBA202D0AC8C95
:102FC000AB8CDBB4AC8EDBA602D0AB8801D0AB8A75
:102FD000DBB8AC849E98DBBAAB86DBAC02D09D8AB2
:102FE00001D09D9A9E9ADBAE02D09D8801D09D981B
:102FF000FB0EDB50AF6EFB0EFC0EDBCF15F015C0E9
:1030000014F0156A1450B06EAC8AAB8E949C948EFA
:10301000AC50100B04E0AC50800B01E1948CE552F5
:0A302000E5CFDAFFE7CFD9FF120079
:06302A00D9CFE6FFDACF6A
:10303000E6FFE1CFD9FFE2CFDAFFE652DF6AFF0E0B
:10304000E76EFC0EDBCF14F0E75014161450A96E97
:10305000FB0EDB50A86EA69EA69CA684F250800BA9
:1030600001E0010EDF6EF29E550EA76EAA0EA76E4E
:10307000A682A6B2FED7DF50E8B0F28EE8A0F29E9C
:10308000A694E552E552E5CFDAFFE7CFD9FF12006B
:10309000446563004E6F76004F63740053657000A3
:1030A000417567004A756C004A756E004D61790084
:1030B000417072004D617200466562004A616E00A7
:1030C0005361740046726900546875005765640066
:0C30D000547565004D6F6E0053756E0066
:0430DC00056A046A13
:1030E000036A026A200EE76ED89006360736083665
:1030F000093602360336043605360B50025C0C5096
:1031000003580D5004580E50055809E30B50025E49
:103110000C50035A0D50045A0E50055A062AE72E39
:04312000E4D71200DE
:0C312400D9CFE6FFDACFE6FFE1CFD9FFFC
:10313000E2CFDAFFFF0EE76EFC0EDBCF14F0FD0EE0
:10314000DBCF15F0E7501416156A1450A96EA69C33
:10315000A69EA68000000000A85000D0E552E5CF52
:08316000DAFFE7CFD9FF1200EE
:08316800C26A0F0EC16EB50E24
:10317000C06E700ED3129B8C9490949C948E956A22
:10318000929292949296929893809382938493864B
:103190009388938C938C938E949694989690929A0D
:0C31A0009692849296948494F19E120002
:0431AC00D9CFE6FF92
:1031B000DACFE6FFE1CFD9FFE2CFDAFFFD0EDB5039
:1031C0007E0BCD6EFD0EDBAC02D0CD8E01D0CD9E40
:1031D000CF6ACE6A9E90DBAE02D09D8001D09D90DA
:0E31E000CD80E552E5CFDAFFE7CFD9FF120030
:0231EE00D9CF37
:1031F000E6FFDACFE6FFE1CFD9FFE2CFDAFFE65212
:10320000F20E0201FC17ABAC03D0FC91ABB0FC8119
:10321000ABB4FC85ABB2FC87AE50DF6EDF50E5523D
:0C322000E552E5CFDAFFE7CFD9FF12003E
:04322C0008C012F0D4
:1032300008500D02F4CF07F0F3CF06F009500E024C
:10324000F4CF09F0F3CF08F00D02F3500726F45045
:103250000822E86A092212500E02F3500726F450A1
:083260000822E86A0922000CB3
:08326800D9CFE6FFDACFE6FF43
:10327000E1CFD9FFE2CFDAFFE652E652FC0EDBCF18
:10328000DEFFDBCFDDFF010EDB50CF6EDF50CE6EF9
:10329000E552E552E552E5CFDAFFE7CFD9FF12005C
:1032A000D9CFE6FFDACFE6FFE1CFD9FFE2CFDAFFF1
:1032B000E652E652FC0EDBCFDEFFDBCFDDFF010E78
:1032C000DB50D76EDF50D66EE552E552E552E5CFC2
:0832D000DAFFE7CFD9FF12007D
:0832D800D9CFE6FFDACFE6FFD3
:1032E000E1CFD9FFE2CFDAFFFD0EDB507F0BD56EC9
:1032F000D76AD66AF294FD0EDBAE02D0F28A01D014
:10330000F29AD58EE552E5CFDAFFE7CFD9FF12006A
:10331000FF0EE3501C6E480E01D04C0EE76EE72EF8
:10332000FED7E76AE72EFED71C2EF7D70000120063
:10333000000EF36E00EE00F0060E01D81200EA60F7
:1033400002D0EE6AFCD7F350E9601200EE6AFCD7B7
:1033500010EE80F020EE80F0F86A019C81EC17F00E
:0C33600003EC00F02EEC17F0FBD712007D
:04336C00056A080ED8
:10337000E76ED890093605360E50055C02E3056EFF
:08338000092AE72EF7D712001D
:083388000201FE6B12000201BC
:10339000FE0503E1FE6B849003D0010EFE6F848076
:0233A000120019
:0E33A200FF0EE350E84E1200000000D000D0F5
:0833B00000D0E82EFAD712004C
:0633B800A6B2FED71200D0
:0233BE0000000D
:1033C00000000000000000000000000000000000FD
:1033D00000000000000000000000000000000000ED
:1033E00000000000000000000000000000000000DD
:1033F00000000000000000000000000000000000CD
:1034000000000000000000000000000000000000BC
:1034100000000000000000000000000000000000AC
:10342000000000000000000000000000000000009C
:0C34300000000000000000000000000090
:04343C00000000008C
:10344000000000000000000000000000000000007C
:0B345000000000000000000000000071
:05345B0000000000006C
:0A3460000000000000000000000062
:06346A000000000000005C
:10347000000000000000000000000000000000004C
:05348000000000000047
:0B34850000000000000000000000003C
:09349000000000C800000000006B
:0734990000D830D430D03020
:1034A000CC30C830C430C030BC30B830B430B030AC
:1034B000AC30A830A430A0309C309830943090309C
:0134C000000B
:0934C1004944454F4E49435300B4
:0634CA003F065B4F666D3A
:0534D0007D077F6F0085
:0B34D50000000000000039393539000C
:0C34E000000000000050590003271213E8
:020000040030CA
:0100010008F6
:010002001BE2
:0100030012EA
:010005008179
:010006008178
:010008000FE8
:01000900C036
:01000A000FE6
:01000B00E014
:01000C000FE4
:01000D0040B2
:00000001FF
