:020000040000FA
:060000003FEF0DF01200BD
:020006001200E6
:08000800F2A402D0CBEF09F0D5
:100010009EA002D041EF0AF01200D08EF28E1200A4
:10002000036A026A100EE76ED8900636073602366B
:1000300003360B50025C0C50035805E30B50025E74
:0C0040000C50035A062AE72EF0D71200DD
:01004C0000B3
:100050000900C91B0000CB02000004000000BE1B09
:100060000000AD0200000B0000004C000000D102B7
:10007000000001000000B51B0000C20200000900E2
:100080000000A11B00009902000014000000861B64
:1000900000007E0200001B000000661B0000000440
:1000A0000000200000004E1B0000000300001800AC
:0E00B0000000D01A0000000200007E000000D8
:0200BE00D9CF98
:1000C000E6FFE1CFD9FFE652DF6A040EDF5C16E2FD
:1000D000100EDF24E66EE66A47EC0CF0E552E552BE
:1000E000E66EDF50EA6A070FE96E030EEA22E55278
:1000F000E750EF6E65EC0DF0DF2AE7D7300E030115
:10010000075D136E300E085D0A0DF3501324116E57
:10011000126A300E095D106E300E0A5D0A0DF35042
:1001200010243C0DF3501124106FF4501220116F65
:10013000DF6A040EDF5C16E2200EDF24E66EE66A5C
:1001400047EC0CF0E552E552E66EDF50EA6A0B0F21
:10015000E96E030EEA22E552E750EF6E65EC0DF012
:10016000DF2AE7D7300E03010B5D136E300E0C5DF6
:100170000A0DF3501324116E126A300E0D5D106ECD
:10018000300E0E5D0A0DF35010243C0DF350112477
:10019000126FF4501220136F64DA040EE66EE66AF2
:1001A000010EE66E030EE66EC9EC05F0E552E5526F
:1001B000E552E55284928494808AE552E552E7CF75
:1001C000D9FF1200D9CFE6FFE1CFD9FFE6520301F4
:1001D0000051010A01E171D1030A65E0020A01E060
:1001E000A8D1E66ABFEC08F0E552010813E139DA5C
:1001F000040EE66EE66A010EE66E030EE66EC9ECCC
:1002000005F0E552E552E552E55203EC0BF003012F
:10021000010E006F010EE66EBFEC08F0E55201081A
:100220001DE137DA03010F6B070EE66E030EE66E73
:100230003AEC04F0E552E5520FC3E6FFF40EE66E29
:10024000010EE66E39EC06F0E552E552E552849275
:1002500084940301010E166F020E006F020EE66E0B
:10026000BFEC08F0E55201081DE12BDA03010F6B2A
:100270000B0EE66E030EE66E3AEC04F0E552E55224
:100280000FC3E6FFF40EE66E010EE66E39EC06F0E3
:10029000E552E552E552849284940301010E176FF2
:1002A000020E006F46D1030EE66EBFEC08F0E55279
:1002B000010811E103010F2B0F51030801E20F6B3D
:1002C0000FC3E6FFF40EE66E010EE66E39EC06F0A3
:1002D000E552E552E552040EE66EBFEC08F0E55239
:1002E000010858E10301160529E10F51EA6A070FD9
:1002F000E96E030EEA22EF2A0F51EA6A070FE96E50
:10030000030EEA22EFCF10F00F51EA6ACB0FE96E2D
:10031000020EEA22EF50D880105408E20F51EA6A28
:10032000070FE96E030EEA22300EEF6E070EE66E3F
:10033000030EE66E3AEC04F0E552E55203011705B0
:1003400029E10F51EA6A0B0FE96E030EEA22EF2A48
:100350000F51EA6A0B0FE96E030EEA22EFCF10F09D
:100360000F51EA6ACB0FE96E020EEA22EF50D880F5
:10037000105408E20F51EA6A0B0FE96E030EEA22ED
:10038000300EEF6E0B0EE66E030EE66E3AEC04F0E6
:10039000E552E552010EE66EBFEC08F0E5520108A9
:1003A00042E1030116053FE1166B27EC05F0070E4D
:1003B000E66E030EE66E3AEC04F0E552E552DF6AB3
:1003C000040EDF5C15E2DF50EA6A070FE96E030EE8
:1003D000EA22EF50E66E100EDF24E66EE66AF0ECDD
:1003E0000BF0E552E552E55265EC0DF0DF2AE8D757
:1003F000300E0301075D136E300E085D0A0DF350D9
:100400001324116E126A300E095D106E300E0A5DF3
:100410000A0DF35010243C0DF3501124106FF450CA
:100420001220116F006B020EE66EBFEC08F0E55271
:10043000010842E1030117053FE1176B27EC05F0C6
:100440000B0EE66E030EE66E3AEC04F0E552E55252
:10045000DF6A040EDF5C15E2DF50EA6A0B0FE96E1B
:10046000030EEA22EF50E66E200EDF24E66EE66A07
:10047000F0EC0BF0E552E552E55265EC0DF0DF2AA9
:10048000E8D7300E03010B5D136E300E0C5D0A0DC4
:10049000F3501324116E126A300E0D5D106E300E83
:1004A0000E5D0A0DF35010243C0DF3501124126F11
:1004B000F4501220136F006B3CD0E66ABFEC08F0DA
:1004C000E552010805E1849284940301006B31D068
:1004D000E5EC0AF0F3CF14F3F4CF15F30301700E3B
:1004E000145D170E15591BE229D8040EE66EE66A54
:1004F000010EE66E030EE66EC9EC05F0E552E5521C
:10050000E552E55203011051145D1151155909E3EB
:100510001251145D1351155904E2848209D0006B05
:1005200008D01251145D1351155902E3849284844A
:1005300000D0E552E552E7CFD9FF1200D9CFE6FF50
:10054000E1CFD9FF040EE1263C0E106E116A14C3F0
:1005500006F015C307F010C00BF011C00CF010EC42
:1005600000F006C0DEFF07C0DDFF14C310F015C3A6
:1005700011F03C0E0B6E0C6A10C006F011C007F0B3
:1005800010EC00F002C010F003C011F0020E10C019
:10059000DBFF030E11C0DBFF020EDBCF10F0030EFA
:1005A000DBCF11F00A0E0B6E0C6A10C006F011C002
:1005B00007F010EC00F002C010F003C011F0300E94
:1005C00010240301016F020EDBCF10F0030EDBCF0E
:1005D00011F00A0E0B6E0C6A10C006F011C007F085
:1005E00010EC00F006C010F007C011F0300E10241F
:1005F0000301026FDECF10F0DDCF11F00A0E0B6E9B
:100600000C6A10C006F011C007F010EC00F002C038
:1006100010F003C011F0300E10240301036FDECF81
:1006200010F0DDCF11F00A0E0B6E0C6A10C006F050
:1006300011C007F010EC00F006C010F007C011F078
:10064000300E10240301046F300E056F066F040E88
:10065000E15C02E2E16AE552E16EE552E7CFD9FFE3
:100660001200D9CFE6FFE1CFD9FFE652DF6A060ECE
:10067000DF5C0AE2DF50EA6A010FE96E030EEA224C
:10068000300EEF6EDF2AF3D7E552E552E7CFD9FF00
:100690001200D9CFE6FFE1CFD9FFE652DF6A040EA0
:1006A000DF5C0AE2DF50EA6A070FE96E030EEA2216
:1006B000300EEF6EDF2AF3D7E552E552E7CFD9FFD0
:1006C0001200D9CFE6FFE1CFD9FFE652DF6A040E70
:1006D000DF5C0AE2DF50EA6A0B0FE96E030EEA22E2
:1006E000300EEF6EDF2AF3D7E552E552E7CFD9FFA0
:0206F0001200F6
:0E06F200D9CFE6FFE1CFD9FF050EE126FE0EBF
:10070000DB50080802E2000E66D0FE0EDBCF8FF24F
:10071000DF6A02018F51DF5C0AE2DF50EA6A870F6D
:10072000E96E020EEA22B7C2EFFFDF2AF2D77F0E90
:10073000956F020E966FDF6A0B0EDF5C48E2010ECA
:10074000DB6AFE0EDB50F36E010EDBCFF4FFF350DD
:10075000F45C15E2DF50EA6AAD0FE96E020EEA22A0
:10076000EF50E66E010EDB50EA6A7F0FE96E020E73
:10077000EA22E552E750EF6E010EDB2AE2D7020EC5
:10078000DB6A640EF36E020EDBCFF4FFF350F45C11
:100790001CE22DD8030EF36EF3CFDBFF040EDB6AF1
:1007A000030EDBCF10F0DB06040EDBCF11F001E20D
:1007B000DB061050111006E0080EE66E1FEC0DF07F
:1007C000E552EED7020EDB2ADCD7DF2AB5D70201CD
:1007D000906B010E00D0106E050EE15C02E2E16A42
:1007E000E552E16E1050E552E7CFD9FF1200020149
:1007F0007E51010A14E0010A01E03BD09051EA6AFF
:100800009525E96E9651EA22EF50E66E41D9E55200
:100810000201902B8F51905D01E3906B2AD0905193
:10082000EA6A9525E96E9651EA22EF50E66E30D9D4
:10083000E5520201902B8F51905D01E3906B912B5B
:10084000000E92239351915D9451925911E3916B53
:10085000926B7F0E951902E1020E961905E1870E43
:10086000956F020E966F04D07F0E956F020E966FF5
:1008700000D01200D9CFE6FFE1CFD9FFE652DF6A00
:10088000DF6A02018F51DF5C16E2DF50E76EFD0E7A
:10089000DBCFE9FFFE0EDBCFEAFFE750E926000ED3
:1008A000EA22EF50E66E53D9E552000902E1000E4C
:1008B00041D0DF2AE6D7DF6A8F51DF5C38E2DF50B4
:1008C000E76EFD0EDBCFE9FFFE0EDBCFEAFFE75060
:1008D000E926000EEA22EF50200809E1DF50EA6A1B
:1008E0007F0FE96E020EEA22B7C2EFFF1ED0DF5083
:1008F000E76EFD0EDBCFE9FFFE0EDBCFEAFFE75030
:10090000E926000EEA22EF50D00FEA6AAD0FE96E39
:10091000020EEA22EF50E66EDF50EA6A7F0FE96EC0
:10092000020EEA22E552E750EF6EDF2AC5D7906B40
:10093000010E00D0E552E552E7CFD9FF1200D9CF22
:10094000E6FFE1CFD9FFE652DF6ADF6A02018F518D
:10095000DF5C19E2DF50E76EFD0EDBCFE9FFFE0E34
:10096000DBCFEAFFE750E926000EEA22EF50E66E01
:10097000DF50EA6A7F0FE96E020EEA22E552E75085
:10098000EF6EDF2AE3D7906BE552E552E7CFD9FF50
:100990001200D9CFE6FFE1CFD9FFE652DF6AFE0EA3
:1009A000DBCF10F002018F51D880105402E2000E0C
:1009B0002DD0FD0EDBCFE6FFCAD8E552000902E1DB
:1009C000000E24D0FD0EDB5020080AE1FE0EDB50A5
:1009D000EA6A7F0FE96E020EEA22B7C2EFFF14D077
:1009E000FD0EDB50D00FEA6AAD0FE96E020EEA226F
:1009F000EF50E66EFE0EDB50EA6A7F0FE96E020EE4
:100A0000EA22E552E750EF6E010E00D0E552E552C2
:100A1000E7CFD9FF1200D9CFE6FFE1CFD9FFFD0E16
:100A2000DBCF93F2FE0EDBCF94F2010E0F0B02012F
:100A300005E0D89094339333E806FBE10201916B13
:100A4000926B010E7E6FE552E7CFD9FF12000201D3
:100A50007F0E956F020E966F7E6B1200D9CFE6FF68
:100A6000E1CFD9FFE652DF6A02018F51DF5C0AE273
:100A7000DF50EA6A7F0FE96E020EEA22B7C2EFFF8B
:100A8000DF2AF2D7906BE552E552E7CFD9FF12008B
:100A9000D9CFE6FFE1CFD9FF8092809480968098ED
:100AA000080EE66E5AEC0DF0E552FE0EDB1C836E6E
:100AB00002019051030A0DE0010A09E0030A05E072
:100AC000010A01E008D0808206D0808404D08086AC
:100AD00002D0808800D0080EE66E5AEC0DF0E55288
:100AE000E552E7CFD9FF1200D9CFE6FFE1CFD9FF1A
:100AF000020EE126FE0EDB50DF6EFE0EDBCFE6FFC0
:100B0000FD0EDB50E552E724DF5C17E2DF50EA6AB6
:100B10007F0FE96E020EEA22010EEFCFDBFFDB5002
:100B20008009E66EDF50EA6A7F0FE96E020EEA2264
:100B3000E552E750EF6EDF2AE0D7020EE15C02E2F9
:100B4000E16AE552E16EE552E7CFD9FF1200D9CF55
:100B5000E6FFE1CFD9FFE652DF6AFE0EDB50200848
:100B600003E1010EDF6E0ED0300EF36EFE0EDBCF12
:100B7000F4FFF350F45C06E3FE0EDB50390802E3A9
:100B8000010EDF6EDF5000D0E552E552E7CFD9FF0E
:100B90001200D9CFE6FFE1CFD9FFE652DF6AFC0EA3
:100BA000DB50DF6EFB0EDB50DF5C16E2DF50E76EE2
:100BB000FD0EDBCFE9FFFE0EDBCFEAFFE750E926B3
:100BC000000EEA22EF50E66EC2DFE552000902E1B4
:100BD000000E4AD0DF2AE6D7FC0EDB50DF6EFB0E9C
:100BE000DBCFE6FFFC0EDB50E552E724DF5C38E2AA
:100BF000DF50E76EFD0EDBCFE9FFFE0EDBCFEAFF35
:100C0000E750E926000EEA22EF50200809E1DF5004
:100C1000EA6A7F0FE96E020EEA22B7C2EFFF1ED02A
:100C2000DF50E76EFD0EDBCFE9FFFE0EDBCFEAFF04
:100C3000E750E926000EEA22EF50D00FEA6AAD0F26
:100C4000E96E020EEA22EF50E66EDF50EA6A7F0F8D
:100C5000E96E020EEA22E552E750EF6EDF2ABFD7B7
:100C60000201906B010E00D0E552E552E7CFD9FFAB
:100C70001200D9CFE6FFE1CFD9FFE652FD0EDBCF60
:100C800093F2FE0EDBCF94F2010E0F0B020105E092
:100C9000D89094339333E806FBE10201916B926B99
:100CA000FC0EDB50976F986BDF6A8F51DF5C1CE2A4
:100CB000DF50106E116A9751101802E19851111807
:100CC00011E0DF50EA6A7F0FE96E020EEA22EF5070
:100CD000E66EDF50EA6A870FE96E020EEA22E552FD
:100CE000E750EF6EDF2AE1D7870E9725E96E020EF7
:100CF0009821EA6EEF6A010E7E6FE552E552E7CF6A
:040D0000D9FF120005
:0C0D0400DACFE4FFE2CFDAFFE9CFE4FF32
:100D1000EACFE4FFF6CFE4FFF7CFE4FFF5CFE4FF3F
:100D2000F3CFE4FFF4CFE4FFFACFE4FF00EE00F0EE
:100D3000100EE80403E3EECFE4FFFBD700EE10F063
:100D4000040EE80403E3EECFE4FFFBD7E652D9CF6D
:100D5000E6FFE1CFD9FFE652ACEC0CF0DF6E02010A
:100D60003F513F2BEA6A420FE96E020EEA22DFCFC3
:100D7000EFFF3C0E3F5D01E33F6B412B9E9AE55236
:100D8000E552E7CFD9FFE55200EE13F0040EE80478
:100D900003E3E5CFEDFFFBD700EE0FF0100EE80404
:100DA00003E3E5CFEDFFFBD7E5CFFAFFE5CFF4FF97
:100DB000E5CFF3FFE5CFF5FFE5CFF7FFE5CFF6FF92
:100DC000E5CFEAFFE5CFE9FFE5CFDAFF1100DACFA3
:100DD000E4FFE2CFDAFFE9CFE4FFEACFE4FFE65237
:100DE000D9CFE6FFE1CFD9FFE6520201025104E17B
:100DF000ACA2FED7AC9A1BD00151EA6A030FE96E90
:100E0000020EEA22EFCFDFFFDF50AD6E012B3C0E6A
:100E1000015D01E3016B000EE76E0219E8AE02D03E
:100E2000023503D0E750D880025501E20207E552AF
:100E3000E552E7CFD9FFE552E5CFEAFFE5CFE9FF7D
:100E4000E5CFDAFF1100D9CFE6FFE1CFD9FFE652B7
:100E50007C0EDF6ED950FB0FE96EFF0EDA20EA6ED2
:100E6000EE2A000EEE22EE22EE22D950FB0FE96EA2
:100E7000FF0EDA20EA6E040EE76ED890EF36010E10
:100E8000EB36020EEB36030EEB36E706F6E1106AA0
:100E9000480E116EE80E126E010E136E10C004F0B3
:100EA00011C005F012C006F013C007F0FB0EDBCF37
:100EB00009F0FC0EDBCF0AF0FD0EDBCF0BF0FE0ECF
:100EC000DBCF0CF023EC0CF0FB0E04C0DBFFFC0EC0
:100ED00005C0DBFFFD0E06C0DBFFFE0E07C0DBFF1B
:100EE000FB0EDBCFE6FFFC0EDBCFE6FFDFCFE6FF3E
:100EF000ABEC0BF0E552E552E552D08EAC8AAC9EDD
:100F0000F28C9F8AE552E552E7CFD9FF1200D9CF84
:100F1000E6FFE1CFD9FFACA2FED702010051002BC2
:100F2000EA6A030FE96E020EEA22FE0EDBCFEFFF44
:100F3000022B3C0E005D01E3006B010E00D0E55278
:100F4000E7CFD9FF1200D9CFE6FFE1CFD9FF020EDC
:100F5000E126000E0201E76E0219E8AE02D002356A
:100F600003D0E750D880025523E20151EA6A030F0B
:100F7000E96E020EEA22010EEFCFDBFFACA2FED734
:100F8000010EDB50AD6EACA2FED70201012B3C0E70
:100F9000015D01E3016B000EE76E0219E8AE02D0BD
:100FA000023503D0E750D880025501E20207D1D7BD
:100FB000106E020EE15C02E2E16AE552E16E105051
:100FC000E552E7CFD9FF1200D9CFE6FFE1CFD9FF35
:100FD000E652DF6A9D9A000E0201E76E4119E8AE03
:100FE00002D0413503D0E750D880415502E2010ECE
:100FF000DF6E9D8ADF5000D0E552E552E7CFD9FF82
:101000001200D9CFE6FFE1CFD9FFE6529D9A020147
:101010004051402BEA6A420FE96E020EEA22EFCFFE
:10102000DFFF3C0E405D01E3406B000EE76E4119AF
:10103000E8AE02D0413503D0E750D880415501E2F7
:1010400041079D8ADF5000D0E552E552E7CFD9FF36
:0210500012008C
:0E105200D9CFE6FFE1CFD9FFE652BDD8DF6A65
:10106000080EDF5C09E2DF50EA6A000FE96E040E49
:10107000EA22EF6ADF2AF4D7E552E552E7CFD9FF3B
:101080001200D9CFE6FFE1CFD9FFCDD8FC0EDBCFE0
:10109000E6FFFD0EDBCFE6FFFE0EDBCFE6FFEBD873
:1010A000E552E552E552E552E7CFD9FF1200D9CF1C
:1010B000E6FFE1CFD9FFE652FC0EDB50DF6EFB0E00
:1010C000DB50D880DF541BE3AED8DFCFE6FFFD0E48
:1010D000DBCF12F0FE0EDBCF13F0DF50030D12500A
:1010E000F324106E1350F420116E10C0E6FF11C0EF
:1010F000E6FFC1D8E552E552E552DF2AE0D7E552D6
:10110000E552E7CFD9FF1200D9CFE6FFE1CFD9FFF3
:10111000E652DF6A88D8DF6A080EDF5C16E2DFCFAE
:10112000E6FFDF50030DF3CF10F0F4CF11F0080EFF
:101130001026040E112210C0E6FF11C0E6FF9BD856
:10114000E552E552E552DF2AE7D7E552E552E7CF0F
:10115000D9FF1200D9CFE6FFE1CFD9FFFE0EDB5059
:10116000030DF3CFE9FFF4CFEAFF080EE926040EE2
:10117000EA22EF5000D0E552E7CFD9FF1200D9CFD5
:10118000E6FFE1CFD9FFE652FE0EDB50030DF3CFB1
:10119000E9FFF4CFEAFF080EE926040EEA22020E68
:1011A000E926000EEA22EFCFDFFFFE0EDB50030D33
:1011B000F3CFE9FFF4CFEAFF080EE926040EEA2296
:1011C000020EE926000EEA22EF6ADF5000D0E55257
:1011D000E552E7CFD9FF1200D9CFE6FFE1CFD9FF23
:1011E000E652DF6A080EDF5C19E2DF50030DF3CF31
:1011F000E9FFF4CFEAFF080EE926040EEA22EF6ABF
:10120000DF50030DF3CFE9FFF4CFEAFF080EE92624
:10121000040EEA22EE52EF6ADF2AE4D7E552E552E5
:10122000E7CFD9FF12008150010B0401006F8150FC
:10123000020B01E0010E016F8150040B01E0010E71
:10124000026F8150080B01E0010E036F8150100BFB
:1012500001E0010E046F8150200B01E0010E056FCB
:101260008150400B01E0010E066F8150800B01E0C0
:10127000010E076F1200D9CFE6FFE1CFD9FFFD0EB7
:10128000DBCFE9FFFE0EDBCFEAFFEF50010A3BE0C8
:10129000010A01E07CD0FC0EDB50EA6A000FE96E27
:1012A000040EEA22EF50010B25E1FD0EDBCFE9FF32
:1012B000FE0EDBCFEAFFEE52EF2AFD0EDBCFE9FF99
:1012C000FE0EDBCFEAFFEE52EFCF10F0020E105C05
:1012D00010E3FD0EDBCFE9FFFE0EDBCFEAFF010ED0
:1012E000EF6EFD0EDBCFE9FFFE0EDBCFEAFFEE5225
:1012F000EF6A08D0FD0EDBCFE9FFFE0EDBCFEAFF81
:10130000EE52EF6A44D0FC0EDB50EA6A000FE96E41
:10131000040EEA22EF50010B010830E1FD0EDBCF95
:10132000E9FFFE0EDBCFEAFFEE52EF2AFD0EDBCF28
:10133000E9FFFE0EDBCFEAFFEE52EFCF10F0020E18
:10134000105C1BE3FD0EDBCFE9FFFE0EDBCFEAFFF7
:10135000EF6AFD0EDBCFE9FFFE0EDBCFEAFF020EE8
:10136000E926000EEA22010EEF6EFD0EDBCFE9FF4B
:10137000FE0EDBCFEAFFEE52EF6A08D0FD0EDBCFA8
:10138000E9FFFE0EDBCFEAFFEE52EF6A00D0E55236
:06139000E7CFD9FF1200B7
:0A139600DACFE4FFE2CFDAFFE9CF7F
:1013A000E4FFEACFE4FFF6CFE4FFF7CFE4FFF5CFA9
:1013B000E4FFF3CFE4FFF4CFE4FFFACFE4FF00EE65
:1013C00000F0100EE80403E3EECFE4FFFBD700EEDD
:1013D00010F0040EE80403E3EECFE4FFFBD7E6527F
:1013E000F2940201A12B000EA223A32BA423A52B70
:1013F000A623A707A85BA83504E2A7510008000EA2
:10140000A85509E3A92B000EAA23AB23AC23CF0ECA
:10141000A76F030EA86F9B519C1107E005D09CC2DB
:10142000FAFF02019B51F96EFADF99C2E6FF9AC2F8
:10143000E6FFE7EC0CF0E552E552E55200EE13F062
:10144000040EE80403E3E5CFEDFFFBD700EE0FF059
:10145000100EE80403E3E5CFEDFFFBD7E5CFFAFF7D
:10146000E5CFF4FFE5CFF3FFE5CFF5FFE5CFF7FFDD
:10147000E5CFF6FFE5CFEAFFE5CFE9FFE5CFDAFFFD
:101480001100DACFE4FFE2CFDAFFE9CFE4FFEACFE1
:10149000E4FFF6CFE4FFF7CFE4FFF5CFE4FFF3CFAF
:1014A000E4FFF4CFE4FFFACFE4FF00EE00F0100E0B
:1014B000E80403E3EECFE4FFFBD700EE10F0040EE8
:1014C000E80403E3EECFE4FFFBD7E6529E909DC213
:1014D000E6FF9EC2E6FFCBEC0CF0E552E5520201BE
:1014E0009F51A01107E005D0A0C2FAFF02019F5151
:1014F000F96EFADFE55200EE13F0040EE80403E3A0
:10150000E5CFEDFFFBD700EE0FF0100EE80403E38C
:10151000E5CFEDFFFBD7E5CFFAFFE5CFF4FFE5CF51
:10152000F3FFE5CFF5FFE5CFF7FFE5CFF6FFE5CF1A
:10153000EAFFE5CFE9FFE5CFDAFF1100D9CFE6FFFB
:10154000E1CFD9FF9F0EE66E03EC0DF0E552FD0EE4
:10155000DBCF99F2FE0EDBCF9AF2FB0EDBCF9BF2D4
:10156000FC0EDBCF9CF2FD0EDBCFE6FFFE0EDBCFE9
:10157000E6FFE7EC0CF0E552E552E552E7CFD9FF84
:101580001200D9CFE6FFE1CFD9FFC50EE66E8BEC96
:101590000CF0E552FD0EDBCFE6FFFE0EDBCFE6FFE3
:1015A000CBEC0CF0E552E5529F80FD0EDBCF9DF2B7
:1015B000FE0EDBCF9EF2FB0EDBCF9FF2FC0EDBCFED
:1015C000A0F2E552E7CFD9FF1200D9CFE6FFE1CF75
:1015D000D9FF020EE126F29AA9C2DEFFAAC2DDFF00
:1015E000F28ADECF10F0DDCF11F010C0F3FF11C092
:1015F000F4FFE15C03E200D0E16AE552E16EE552FE
:10160000E7CFD9FF1200F29E0201A96BAA6BAB6B68
:06161000AC6BF28E12002B
:0A161600D9CFE6FFE1CFD9FF040EA3
:10162000E126DF6A030EDB6A69EC0CF029EC08F0B6
:10163000040EE66E79EC03F0E552EE0EE66E070E50
:10164000E66EBF0EE66EE00EE66E9EEC0AF0E55228
:10165000E552E552E5525FEC00F00DEC00F0F28E41
:101660000201F40EA15D010EA25905E350EC0DF04C
:101670000201A16BA26B02010A0EA35D000EA45928
:1016800005E384EC08F00201A36BA46B0201FA0EDF
:10169000A55D000EA65905E3E2EC00F00201A56B82
:1016A000A66BDED7040EE15C02E2E16AE552E16E70
:0816B000E552E7CFD9FF12005B
:0816B800500EF66E000EF76EF5
:1016C000000EF86E02010900F550BD6F0900F550DB
:1016D000BE6F03E1BD6701D03DD00900F550B86F82
:1016E0000900F550B96F0900F550BA6F09000900FB
:1016F000F550E96E0900F550EA6E0900090009008D
:10170000F550BB6F0900F550BC6F09000900F6CF1A
:10171000BFF2F7CFC0F2F8CFC1F2B8C2F6FFB9C23C
:10172000F7FFBAC2F8FF0201BB5302E1BC5307E066
:101730000900F550EE6EBB07F8E2BC07F9D7BFC24F
:10174000F6FFC0C2F7FFC1C2F8FF0201BD07000EDD
:06175000BE5BBFD71200D2
:0A175600D9CFE6FFDACFE6FFE1CFBE
:10176000D9FFE2CFDAFFAC6AAB6AFD0EDBB0AC8822
:10177000DBA202D0AC8CAB8CDBB4AC8EDBA602D08F
:10178000AB8801D0AB8ADBB8AC849E98DBBAAB8661
:10179000DBAC02D09D8A01D09D9A9E9ADBAE02D02E
:1017A0009D8801D09D98FB0EDB50AF6EFB0EFC0EAA
:1017B000DBCF11F011C010F0116A1050B06EAC8A7E
:1017C000AB8E949C948EAC50100B04E0AC50800B0C
:1017D00001E1948CE552E5CFDAFFE7CFD9FF1200A3
:1017E000D9CFE6FFDACFE6FFE1CFD9FFE2CFDAFFCC
:1017F000E652DF6AFF0EE76EFC0EDBCF10F0E7501B
:1018000010161050A96EFB0EDB50A86EA69EA69C6B
:10181000A684F250800B01E0010EDF6EF29E550EA1
:10182000A76EAA0EA76EA682A6B2FED7DF50E8B0BA
:10183000F28EE8A0F29EA694E552E552E5CFDAFFDB
:06184000E7CFD9FF120002
:0A184600036A026A016A006A200EBC
:10185000E76ED89004360536063607360036013670
:10186000023603360950005C0A5001580B500258EA
:101870000C50035809E30950005E0A50015A0B50FE
:0E188000025A0C50035A042AE72EE4D7120035
:02188E00D9CFB0
:10189000E6FFDACFE6FFE1CFD9FFE2CFDAFFFF0EB6
:1018A000E76EFC0EDBCF10F0FD0EDBCF11F0E75042
:1018B0001016116A1050A96EA69CA69EA680000064
:1018C0000000A85000D0E552E5CFDAFFE7CFD9FFFE
:0218D000120004
:0E18D200C26A0F0EC16EB50EC06E700ED3123C
:1018E0009B8C9490949C948E956A929292949296EA
:1018F000929893809382938493869388938C938C0D
:10190000938E949694989690929A969284929694A6
:061910008494F19E120018
:0A191600D9CFE6FFDACFE6FFE1CFFC
:10192000D9FFE2CFDAFFFD0EDB507E0BCD6EFD0E50
:10193000DBAC02D0CD8E01D0CD9ECF6ACE6A9E9018
:10194000DBAE02D09D8001D09D90CD80E552E5CFE9
:08195000DAFFE7CFD9FF120016
:08195800D9CFE6FFDACFE6FF6C
:10196000E1CFD9FFE2CFDAFFE652F20E0201CF1744
:10197000ABAC03D0CF91ABB0CF81ABB4CF85ABB222
:10198000CF87AE50DF6EDF50E552E552E5CFDAFF8C
:06199000E7CFD9FF1200B1
:0A199600D9CFE6FFDACFE6FFE1CF7C
:1019A000D9FFE2CFDAFFE652E652FC0EDBCFDEFFD4
:1019B000DBCFDDFF010EDB50CF6EDF50CE6EE55288
:0E19C000E552E552E5CFDAFFE7CFD9FF12007E
:0219CE00D9CF6F
:1019D000E6FFDACFE6FFE1CFD9FFE2CFDAFFE6524A
:1019E000E652FC0EDBCFDEFFDBCFDDFF010EDB506E
:1019F000D76EDF50D66EE552E552E552E5CFDAFFFD
:061A0000E7CFD9FF120040
:0A1A0600D9CFE6FFDACFE6FFE1CF0B
:101A1000D9FFE2CFDAFFFD0EDB507F0BD56ED76A20
:101A2000D66AF294FD0EDBAE02D0F28A01D0F29AB1
:0E1A3000D58EE552E5CFDAFFE7CFD9FF1200E1
:021A3E00FF0E99
:101A4000E350146E480E01D04C0EE76EE72EFED721
:0E1A5000E76AE72EFED7142EF7D7000012002B
:021A5E00000E78
:101A6000F36E00EE00F0060E01D81200EA6002D01C
:0E1A7000EE6AFCD7F350E9601200EE6AFCD774
:021A7E0010EE68
:101A800080F020EE80F0F86A0F9C5CEC0BF003EC29
:0A1A900000F00BEC0BF0FBD7120086
:061A9A000201D16B1200F5
:101AA0000201D10503E1D16B849003D0010ED16F07
:041AB000848012001C
:0C1AB400FF0EE350E84E1200000000D0CE
:0A1AC00000D000D0E82EFAD7120083
:061ACA00A6B2FED71200D7
:101AD0000000000000000000000000000000000006
:101AE00000000000000000000000000000000000F6
:101AF00000000000000000000000000000000000E6
:101B000000000000000000000000000000000000D5
:101B100000000000000000000000000000000000C5
:101B200000000000000000000000000000000000B5
:101B300000000000000000000000000000000000A5
:0E1B4000000000000000000000000000000097
:021B4E00000095
:101B50000000000000000000000000000000000085
:061B60000000000000007F
:0A1B66000000000000000000000075
:101B70000000000000000000000000000000000065
:061B80000000000000005F
:0A1B86000000000000000000000055
:101B90000000000000000000000000000000000045
:011BA0000044
:0F1BA1000000000000000000000000000000CF66
:051BB00003000000002D
:091BB5004944454F4E49435300D9
:021BBE003F06E0
:091BC0005B4F666D7D077F6F002D
:041BC9003935393938
:020000040030CA
:0100010008F6
:010002001BE2
:0100030012EA
:010005008179
:010006008178
:010008000FE8
:01000900C036
:01000A000FE6
:01000B00E014
:01000C000FE4
:01000D0040B2
:00000001FF
